{
  "address": "0x21877319F2378540CC2F9C32B058aD4bFa4808F4",
  "abi": [
    {
      "inputs": [],
      "stateMutability": "nonpayable",
      "type": "constructor"
    },
    {
      "inputs": [
        {
          "internalType": "uint256",
          "name": "jobId",
          "type": "uint256"
        }
      ],
      "name": "acceptJob",
      "outputs": [],
      "stateMutability": "nonpayable",
      "type": "function"
    },
    {
      "inputs": [
        {
          "internalType": "uint256",
          "name": "jobId",
          "type": "uint256"
        }
      ],
      "name": "completeJob",
      "outputs": [],
      "stateMutability": "nonpayable",
      "type": "function"
    },
    {
      "inputs": [
        {
          "internalType": "address",
          "name": "freelancer",
          "type": "address"
        }
      ],
      "name": "createJob",
      "outputs": [],
      "stateMutability": "payable",
      "type": "function"
    },
    {
      "inputs": [],
      "name": "jobCounter",
      "outputs": [
        {
          "internalType": "uint256",
          "name": "",
          "type": "uint256"
        }
      ],
      "stateMutability": "view",
      "type": "function"
    },
    {
      "inputs": [
        {
          "internalType": "uint256",
          "name": "",
          "type": "uint256"
        }
      ],
      "name": "jobs",
      "outputs": [
        {
          "internalType": "address",
          "name": "client",
          "type": "address"
        },
        {
          "internalType": "address",
          "name": "freelancer",
          "type": "address"
        },
        {
          "internalType": "uint256",
          "name": "amount",
          "type": "uint256"
        },
        {
          "internalType": "enum FreelanceEscrow.JobStatus",
          "name": "status",
          "type": "uint8"
        }
      ],
      "stateMutability": "view",
      "type": "function"
    },
    {
      "inputs": [],
      "name": "owner",
      "outputs": [
        {
          "internalType": "address",
          "name": "",
          "type": "address"
        }
      ],
      "stateMutability": "view",
      "type": "function"
    },
    {
      "inputs": [
        {
          "internalType": "uint256",
          "name": "jobId",
          "type": "uint256"
        }
      ],
      "name": "withdrawPayment",
      "outputs": [],
      "stateMutability": "nonpayable",
      "type": "function"
    }
  ],
  "transactionHash": "0xa6cc99148a81994d43e665ef895d80d244527c7f7b0229e96796af0090f118c5",
  "args": [],
  "numDeployments": 1,
  "solcInputHash": "2e2558b7f0a1d0b4f20cb17e4e070c8a",
  "bytecode": "0x608060405234801561001057600080fd5b50336000806101000a81548173ffffffffffffffffffffffffffffffffffffffff021916908373ffffffffffffffffffffffffffffffffffffffff160217905550611196806100606000396000f3fe6080604052600436106100705760003560e01c80638da5cb5b1161004e5780638da5cb5b14610109578063a1c0d32f14610134578063d004e9851461015d578063dbd3cd621461017957610070565b8063180aedf31461007557806350355d76146100b557806363b2f3c9146100e0575b600080fd5b34801561008157600080fd5b5061009c60048036038101906100979190610b3e565b6101a2565b6040516100ac9493929190610c32565b60405180910390f35b3480156100c157600080fd5b506100ca61021f565b6040516100d79190610c77565b60405180910390f35b3480156100ec57600080fd5b5061010760048036038101906101029190610b3e565b610225565b005b34801561011557600080fd5b5061011e61043d565b60405161012b9190610c92565b60405180910390f35b34801561014057600080fd5b5061015b60048036038101906101569190610b3e565b610461565b005b61017760048036038101906101729190610cd9565b61067a565b005b34801561018557600080fd5b506101a0600480360381019061019b9190610b3e565b610887565b005b60016020528060005260406000206000915090508060000160009054906101000a900473ffffffffffffffffffffffffffffffffffffffff16908060010160009054906101000a900473ffffffffffffffffffffffffffffffffffffffff16908060020154908060030160009054906101000a900460ff16905084565b60025481565b806001600082815260200190815260200160002060010160009054906101000a900473ffffffffffffffffffffffffffffffffffffffff1673ffffffffffffffffffffffffffffffffffffffff163373ffffffffffffffffffffffffffffffffffffffff16146102ca576040517f08c379a00000000000000000000000000000000000000000000000000000000081526004016102c190610d89565b60405180910390fd5b81600073ffffffffffffffffffffffffffffffffffffffff166001600083815260200190815260200160002060000160009054906101000a900473ffffffffffffffffffffffffffffffffffffffff1673ffffffffffffffffffffffffffffffffffffffff1603610370576040517f08c379a000000000000000000000000000000000000000000000000000000000815260040161036790610df5565b60405180910390fd5b6000600381111561038457610383610bbb565b5b6001600085815260200190815260200160002060030160009054906101000a900460ff1660038111156103ba576103b9610bbb565b5b146103fa576040517f08c379a00000000000000000000000000000000000000000000000000000000081526004016103f190610e61565b60405180910390fd5b600180600085815260200190815260200160002060030160006101000a81548160ff0219169083600381111561043357610432610bbb565b5b0217905550505050565b60008054906101000a900473ffffffffffffffffffffffffffffffffffffffff1681565b806001600082815260200190815260200160002060000160009054906101000a900473ffffffffffffffffffffffffffffffffffffffff1673ffffffffffffffffffffffffffffffffffffffff163373ffffffffffffffffffffffffffffffffffffffff1614610506576040517f08c379a00000000000000000000000000000000000000000000000000000000081526004016104fd90610ef3565b60405180910390fd5b81600073ffffffffffffffffffffffffffffffffffffffff166001600083815260200190815260200160002060000160009054906101000a900473ffffffffffffffffffffffffffffffffffffffff1673ffffffffffffffffffffffffffffffffffffffff16036105ac576040517f08c379a00000000000000000000000000000000000000000000000000000000081526004016105a390610df5565b60405180910390fd5b600160038111156105c0576105bf610bbb565b5b6001600085815260200190815260200160002060030160009054906101000a900460ff1660038111156105f6576105f5610bbb565b5b14610636576040517f08c379a000000000000000000000000000000000000000000000000000000000815260040161062d90610f5f565b60405180910390fd5b60026001600085815260200190815260200160002060030160006101000a81548160ff021916908360038111156106705761066f610bbb565b5b0217905550505050565b600034116106bd576040517f08c379a00000000000000000000000000000000000000000000000000000000081526004016106b490610ff1565b60405180910390fd5b600073ffffffffffffffffffffffffffffffffffffffff168173ffffffffffffffffffffffffffffffffffffffff160361072c576040517f08c379a00000000000000000000000000000000000000000000000000000000081526004016107239061105d565b60405180910390fd5b6002600081548092919061073f906110ac565b919050555060405180608001604052803373ffffffffffffffffffffffffffffffffffffffff1681526020018273ffffffffffffffffffffffffffffffffffffffff168152602001348152602001600060038111156107a1576107a0610bbb565b5b81525060016000600254815260200190815260200160002060008201518160000160006101000a81548173ffffffffffffffffffffffffffffffffffffffff021916908373ffffffffffffffffffffffffffffffffffffffff16021790555060208201518160010160006101000a81548173ffffffffffffffffffffffffffffffffffffffff021916908373ffffffffffffffffffffffffffffffffffffffff1602179055506040820151816002015560608201518160030160006101000a81548160ff0219169083600381111561087c5761087b610bbb565b5b021790555090505050565b806001600082815260200190815260200160002060010160009054906101000a900473ffffffffffffffffffffffffffffffffffffffff1673ffffffffffffffffffffffffffffffffffffffff163373ffffffffffffffffffffffffffffffffffffffff161461092c576040517f08c379a000000000000000000000000000000000000000000000000000000000815260040161092390610d89565b60405180910390fd5b81600073ffffffffffffffffffffffffffffffffffffffff166001600083815260200190815260200160002060000160009054906101000a900473ffffffffffffffffffffffffffffffffffffffff1673ffffffffffffffffffffffffffffffffffffffff16036109d2576040517f08c379a00000000000000000000000000000000000000000000000000000000081526004016109c990610df5565b60405180910390fd5b600260038111156109e6576109e5610bbb565b5b6001600085815260200190815260200160002060030160009054906101000a900460ff166003811115610a1c57610a1b610bbb565b5b14610a5c576040517f08c379a0000000000000000000000000000000000000000000000000000000008152600401610a5390611140565b60405180910390fd5b60006001600085815260200190815260200160002060020154905060036001600086815260200190815260200160002060030160006101000a81548160ff02191690836003811115610ab157610ab0610bbb565b5b02179055503373ffffffffffffffffffffffffffffffffffffffff166108fc829081150290604051600060405180830381858888f19350505050158015610afc573d6000803e3d6000fd5b5050505050565b600080fd5b6000819050919050565b610b1b81610b08565b8114610b2657600080fd5b50565b600081359050610b3881610b12565b92915050565b600060208284031215610b5457610b53610b03565b5b6000610b6284828501610b29565b91505092915050565b600073ffffffffffffffffffffffffffffffffffffffff82169050919050565b6000610b9682610b6b565b9050919050565b610ba681610b8b565b82525050565b610bb581610b08565b82525050565b7f4e487b7100000000000000000000000000000000000000000000000000000000600052602160045260246000fd5b60048110610bfb57610bfa610bbb565b5b50565b6000819050610c0c82610bea565b919050565b6000610c1c82610bfe565b9050919050565b610c2c81610c11565b82525050565b6000608082019050610c476000830187610b9d565b610c546020830186610b9d565b610c616040830185610bac565b610c6e6060830184610c23565b95945050505050565b6000602082019050610c8c6000830184610bac565b92915050565b6000602082019050610ca76000830184610b9d565b92915050565b610cb681610b8b565b8114610cc157600080fd5b50565b600081359050610cd381610cad565b92915050565b600060208284031215610cef57610cee610b03565b5b6000610cfd84828501610cc4565b91505092915050565b600082825260208201905092915050565b7f4f6e6c7920667265656c616e6365722063616e2063616c6c207468697320667560008201527f6e6374696f6e0000000000000000000000000000000000000000000000000000602082015250565b6000610d73602683610d06565b9150610d7e82610d17565b604082019050919050565b60006020820190508181036000830152610da281610d66565b9050919050565b7f4a6f6220646f6573206e6f742065786973740000000000000000000000000000600082015250565b6000610ddf601283610d06565b9150610dea82610da9565b602082019050919050565b60006020820190508181036000830152610e0e81610dd2565b9050919050565b7f4a6f62206973206e6f742070656e64696e670000000000000000000000000000600082015250565b6000610e4b601283610d06565b9150610e5682610e15565b602082019050919050565b60006020820190508181036000830152610e7a81610e3e565b9050919050565b7f4f6e6c7920636c69656e742063616e2063616c6c20746869732066756e63746960008201527f6f6e000000000000000000000000000000000000000000000000000000000000602082015250565b6000610edd602283610d06565b9150610ee882610e81565b604082019050919050565b60006020820190508181036000830152610f0c81610ed0565b9050919050565b7f4a6f62206973206e6f7420616363657074656420796574000000000000000000600082015250565b6000610f49601783610d06565b9150610f5482610f13565b602082019050919050565b60006020820190508181036000830152610f7881610f3c565b9050919050565b7f5061796d656e74206d7573742062652067726561746572207468616e207a657260008201527f6f00000000000000000000000000000000000000000000000000000000000000602082015250565b6000610fdb602183610d06565b9150610fe682610f7f565b604082019050919050565b6000602082019050818103600083015261100a81610fce565b9050919050565b7f496e76616c696420667265656c616e6365722061646472657373000000000000600082015250565b6000611047601a83610d06565b915061105282611011565b602082019050919050565b600060208201905081810360008301526110768161103a565b9050919050565b7f4e487b7100000000000000000000000000000000000000000000000000000000600052601160045260246000fd5b60006110b782610b08565b91507fffffffffffffffffffffffffffffffffffffffffffffffffffffffffffffffff82036110e9576110e861107d565b5b600182019050919050565b7f4a6f62206973206e6f7420636f6d706c65746564207965740000000000000000600082015250565b600061112a601883610d06565b9150611135826110f4565b602082019050919050565b600060208201905081810360008301526111598161111d565b905091905056fea26469706673582212201a3aa2c41a6c399c2ae6dd39540970e8d266230b565b9ba936bc8a846de725e864736f6c63430008140033",
  "devdoc": {
    "kind": "dev",
    "methods": {},
    "version": 1
  },
  "userdoc": {
    "kind": "user",
    "methods": {},
    "version": 1
  },
  "storageLayout": {
    "storage": [
      {
        "astId": 3,
        "contract": "contracts/FreelanceEscrow.sol:FreelanceEscrow",
        "label": "owner",
        "offset": 0,
        "slot": "0",
        "type": "t_address"
      },
      {
        "astId": 23,
        "contract": "contracts/FreelanceEscrow.sol:FreelanceEscrow",
        "label": "jobs",
        "offset": 0,
        "slot": "1",
        "type": "t_mapping(t_uint256,t_struct(Job)18_storage)"
      },
      {
        "astId": 25,
        "contract": "contracts/FreelanceEscrow.sol:FreelanceEscrow",
        "label": "jobCounter",
        "offset": 0,
        "slot": "2",
        "type": "t_uint256"
      }
    ],
    "types": {
      "t_address": {
        "encoding": "inplace",
        "label": "address",
        "numberOfBytes": "20"
      },
      "t_enum(JobStatus)8": {
        "encoding": "inplace",
        "label": "enum FreelanceEscrow.JobStatus",
        "numberOfBytes": "1"
      },
      "t_mapping(t_uint256,t_struct(Job)18_storage)": {
        "encoding": "mapping",
        "key": "t_uint256",
        "label": "mapping(uint256 => struct FreelanceEscrow.Job)",
        "numberOfBytes": "32",
        "value": "t_struct(Job)18_storage"
      },
      "t_struct(Job)18_storage": {
        "encoding": "inplace",
        "label": "struct FreelanceEscrow.Job",
        "members": [
          {
            "astId": 10,
            "contract": "contracts/FreelanceEscrow.sol:FreelanceEscrow",
            "label": "client",
            "offset": 0,
            "slot": "0",
            "type": "t_address"
          },
          {
            "astId": 12,
            "contract": "contracts/FreelanceEscrow.sol:FreelanceEscrow",
            "label": "freelancer",
            "offset": 0,
            "slot": "1",
            "type": "t_address"
          },
          {
            "astId": 14,
            "contract": "contracts/FreelanceEscrow.sol:FreelanceEscrow",
            "label": "amount",
            "offset": 0,
            "slot": "2",
            "type": "t_uint256"
          },
          {
            "astId": 17,
            "contract": "contracts/FreelanceEscrow.sol:FreelanceEscrow",
            "label": "status",
            "offset": 0,
            "slot": "3",
            "type": "t_enum(JobStatus)8"
          }
        ],
        "numberOfBytes": "128"
      },
      "t_uint256": {
        "encoding": "inplace",
        "label": "uint256",
        "numberOfBytes": "32"
      }
    }
  }
}